:100000000C9464000C9476000C9476000C947600AA
:100010000C9476000C9476000C9476000C94760088
:100020000C9476000C9476000C9476000C94A0004E
:100030000C9476000C9476000C9476000C94760068
:100040000C9476000C9476000C9476000C94760058
:100050000C94760000000002000000000000000088
:100060000504000700000000000000000000000080
:100070000000000001020408102040800102040872
:100080001020408001020408102040800102040872
:100090001020408002020202020202020404040450
:1000A0000404040403030303030303030101010124
:1000B0000101010100003B00380035003200000062
:1000C0003A0037003400310011241FBECFE5D8E0DC
:1000D000DEBFCDBF20E0A0E6B0E001C01D92A93692
:1000E000B207E1F70E9491000C94EC010C9400001F
:1000F00061E08FE00C94810161E08FE00E94BD011E
:1001000060ED77E080E090E00E94100160E08FE019
:100110000E94BD0164EF71E080E090E00C9410015A
:1001200008950E9449010E9490000E947800C0E05A
:10013000D0E00E947C002097E1F30E940000F9CFFC
:100140001F920F920FB60F9211242F933F938F930C
:100150009F93AF93BF938091650090916600A091AB
:100160006700B09168003091640026E0230F2D37BE
:1001700068F129E8230F0396A11DB11D20936400A7
:100180008093650090936600A0936700B093680029
:100190008091600090916100A0916200B091630035
:1001A0000196A11DB11D8093600090936100A09302
:1001B0006200B0936300BF91AF919F918F913F9187
:1001C0002F910F900FBE0F901F9018950296A11DB2
:1001D000B11DD4CF3FB7F894809160009091610039
:1001E000A0916200B091630022B708B600FE05C07E
:1001F0002F3F19F00196A11DB11D3FBFBA2FA92FA6
:10020000982F8827BC01CD01620F711D811D911DA2
:1002100043E0660F771F881F991F4A95D1F708950D
:100220008F929F92AF92BF92CF92DF92EF92FF9206
:100230006B017C010E94EA004B015C01C114D104F6
:10024000E104F104E9F00E94EB010E94EA00681960
:1002500079098A099B09683E73408105910570F30D
:1002600021E0C21AD108E108F10888EE880E83E087
:10027000981EA11CB11CC114D104E104F10429F79A
:10028000FF90EF90DF90CF90BF90AF909F908F90B6
:100290000895789483B7836083BF83B7886483BFEE
:1002A00089B7816089BF82E08EBD8EB581608EBDC9
:1002B0008FB581608FBD85B5846085BD85B580644F
:1002C00085BD86E886B91AB80895843059F028F4B7
:1002D000813099F0823089F00895853039F0873087
:1002E00041F008958FB58F778FBD08958FB58F7DBD
:1002F000FBCF85B58F7D85BD089583B78F7D83BF87
:100300000895CF93DF9390E0FC01EC58FF4F2491C8
:100310008C569F4FFC0184918823C9F090E0880F90
:10032000991FFC01E254FF4FA591B491FC01EC54DC
:10033000FF4FC591D49161110DC09FB7F8948C9176
:10034000209582238C938881282328839FBFDF9167
:10035000CF910895623051F49FB7F8943C91822F69
:10036000809583238C93E8812E2BEFCF8FB7F89461
:10037000EC912E2B2C938FBFEACF1F93CF93DF935B
:10038000282F30E0F901EC5AFF4F8491F901EC5825
:10039000FF4FD491F901EC56FF4FC491CC23A9F043
:1003A000162F81110E946501EC2FF0E0EE0FFF1F68
:1003B000EC54FF4FA591B4918FB7F894EC911111C3
:1003C00008C0D095DE23DC938FBFDF91CF911F91C2
:0C03D0000895DE2BF8CF0895F894FFCFBD
:00000001FF
